{
  "_format": "hh-sol-artifact-1",
  "contractName": "VoteChain",
  "sourceName": "contracts/VoteChain.sol",
  "abi": [
    {
      "inputs": [],
      "stateMutability": "nonpayable",
      "type": "constructor"
    },
    {
      "anonymous": false,
      "inputs": [
        {
          "indexed": true,
          "internalType": "uint256",
          "name": "voteId",
          "type": "uint256"
        },
        {
          "indexed": false,
          "internalType": "uint256",
          "name": "optionId",
          "type": "uint256"
        },
        {
          "indexed": false,
          "internalType": "bytes32",
          "name": "voterHash",
          "type": "bytes32"
        }
      ],
      "name": "VoteCast",
      "type": "event"
    },
    {
      "anonymous": false,
      "inputs": [
        {
          "indexed": true,
          "internalType": "uint256",
          "name": "voteId",
          "type": "uint256"
        },
        {
          "indexed": false,
          "internalType": "uint256",
          "name": "totalVotes",
          "type": "uint256"
        }
      ],
      "name": "VoteClosed",
      "type": "event"
    },
    {
      "anonymous": false,
      "inputs": [
        {
          "indexed": true,
          "internalType": "uint256",
          "name": "voteId",
          "type": "uint256"
        },
        {
          "indexed": false,
          "internalType": "string",
          "name": "title",
          "type": "string"
        },
        {
          "indexed": false,
          "internalType": "address",
          "name": "creator",
          "type": "address"
        }
      ],
      "name": "VoteCreated",
      "type": "event"
    },
    {
      "inputs": [
        {
          "internalType": "uint256",
          "name": "_voteId",
          "type": "uint256"
        },
        {
          "internalType": "uint256",
          "name": "_optionId",
          "type": "uint256"
        }
      ],
      "name": "castVote",
      "outputs": [],
      "stateMutability": "nonpayable",
      "type": "function"
    },
    {
      "inputs": [
        {
          "internalType": "uint256",
          "name": "_voteId",
          "type": "uint256"
        }
      ],
      "name": "closeVote",
      "outputs": [],
      "stateMutability": "nonpayable",
      "type": "function"
    },
    {
      "inputs": [
        {
          "internalType": "string",
          "name": "_title",
          "type": "string"
        },
        {
          "internalType": "string",
          "name": "_description",
          "type": "string"
        },
        {
          "internalType": "string[]",
          "name": "_options",
          "type": "string[]"
        },
        {
          "internalType": "uint256",
          "name": "_durationInHours",
          "type": "uint256"
        },
        {
          "internalType": "bool",
          "name": "_isAnonymous",
          "type": "bool"
        }
      ],
      "name": "createVote",
      "outputs": [
        {
          "internalType": "uint256",
          "name": "",
          "type": "uint256"
        }
      ],
      "stateMutability": "nonpayable",
      "type": "function"
    },
    {
      "inputs": [
        {
          "internalType": "uint256",
          "name": "_voteId",
          "type": "uint256"
        },
        {
          "internalType": "address",
          "name": "_voter",
          "type": "address"
        }
      ],
      "name": "didVote",
      "outputs": [
        {
          "internalType": "bool",
          "name": "",
          "type": "bool"
        }
      ],
      "stateMutability": "view",
      "type": "function"
    },
    {
      "inputs": [
        {
          "internalType": "uint256",
          "name": "_voteId",
          "type": "uint256"
        }
      ],
      "name": "getOptions",
      "outputs": [
        {
          "components": [
            {
              "internalType": "uint256",
              "name": "id",
              "type": "uint256"
            },
            {
              "internalType": "string",
              "name": "text",
              "type": "string"
            },
            {
              "internalType": "uint256",
              "name": "voteCount",
              "type": "uint256"
            }
          ],
          "internalType": "struct VoteChain.Option[]",
          "name": "",
          "type": "tuple[]"
        }
      ],
      "stateMutability": "view",
      "type": "function"
    },
    {
      "inputs": [
        {
          "internalType": "uint256",
          "name": "_voteId",
          "type": "uint256"
        }
      ],
      "name": "getResults",
      "outputs": [
        {
          "components": [
            {
              "internalType": "uint256",
              "name": "id",
              "type": "uint256"
            },
            {
              "internalType": "string",
              "name": "text",
              "type": "string"
            },
            {
              "internalType": "uint256",
              "name": "voteCount",
              "type": "uint256"
            }
          ],
          "internalType": "struct VoteChain.Option[]",
          "name": "",
          "type": "tuple[]"
        }
      ],
      "stateMutability": "view",
      "type": "function"
    },
    {
      "inputs": [
        {
          "internalType": "uint256",
          "name": "",
          "type": "uint256"
        },
        {
          "internalType": "address",
          "name": "",
          "type": "address"
        }
      ],
      "name": "hasVoted",
      "outputs": [
        {
          "internalType": "bool",
          "name": "",
          "type": "bool"
        }
      ],
      "stateMutability": "view",
      "type": "function"
    },
    {
      "inputs": [],
      "name": "owner",
      "outputs": [
        {
          "internalType": "address",
          "name": "",
          "type": "address"
        }
      ],
      "stateMutability": "view",
      "type": "function"
    },
    {
      "inputs": [],
      "name": "voteCounter",
      "outputs": [
        {
          "internalType": "uint256",
          "name": "",
          "type": "uint256"
        }
      ],
      "stateMutability": "view",
      "type": "function"
    },
    {
      "inputs": [
        {
          "internalType": "uint256",
          "name": "",
          "type": "uint256"
        },
        {
          "internalType": "uint256",
          "name": "",
          "type": "uint256"
        }
      ],
      "name": "voteOptions",
      "outputs": [
        {
          "internalType": "uint256",
          "name": "id",
          "type": "uint256"
        },
        {
          "internalType": "string",
          "name": "text",
          "type": "string"
        },
        {
          "internalType": "uint256",
          "name": "voteCount",
          "type": "uint256"
        }
      ],
      "stateMutability": "view",
      "type": "function"
    },
    {
      "inputs": [
        {
          "internalType": "uint256",
          "name": "",
          "type": "uint256"
        }
      ],
      "name": "votes",
      "outputs": [
        {
          "internalType": "uint256",
          "name": "id",
          "type": "uint256"
        },
        {
          "internalType": "string",
          "name": "title",
          "type": "string"
        },
        {
          "internalType": "string",
          "name": "description",
          "type": "string"
        },
        {
          "internalType": "bool",
          "name": "isAnonymous",
          "type": "bool"
        },
        {
          "internalType": "bool",
          "name": "active",
          "type": "bool"
        },
        {
          "internalType": "uint256",
          "name": "startTime",
          "type": "uint256"
        },
        {
          "internalType": "uint256",
          "name": "endTime",
          "type": "uint256"
        },
        {
          "internalType": "uint256",
          "name": "totalVotes",
          "type": "uint256"
        },
        {
          "internalType": "address",
          "name": "creator",
          "type": "address"
        }
      ],
      "stateMutability": "view",
      "type": "function"
    }
  ],
  "bytecode": "0x6080604052348015600f57600080fd5b50336000806101000a81548173ffffffffffffffffffffffffffffffffffffffff021916908373ffffffffffffffffffffffffffffffffffffffff1602179055506121ff8061005f6000396000f3fe608060405234801561001057600080fd5b50600436106100a95760003560e01c80636e48a035116100715780636e48a0351461018257806381a60c0d1461019e5780638915b3fb146101ce5780638da5cb5b146101fe578063902432e91461021c578063a7c438bc1461024c576100a9565b80632c0a3f89146100ae5780633c4f5500146100ca57806343859632146100fc578063599f36d11461012c5780635df813301461014a575b600080fd5b6100c860048036038101906100c39190611190565b61027c565b005b6100e460048036038101906100df9190611190565b61061a565b6040516100f39392919061126f565b60405180910390f35b6101166004803603810190610111919061130b565b6106e9565b6040516101239190611366565b60405180910390f35b610134610718565b6040516101419190611381565b60405180910390f35b610164600480360381019061015f919061139c565b61071e565b604051610179999897969594939291906113d8565b60405180910390f35b61019c6004803603810190610197919061139c565b6108b6565b005b6101b860048036038101906101b3919061139c565b610a83565b6040516101c591906115de565b60405180910390f35b6101e860048036038101906101e3919061139c565b610bee565b6040516101f591906115de565b60405180910390f35b610206610d59565b6040516102139190611600565b60405180910390f35b61023660048036038101906102319190611862565b610d7d565b6040516102439190611381565b60405180910390f35b6102666004803603810190610261919061130b565b61108b565b6040516102739190611366565b60405180910390f35b8160008111801561028f57506001548111155b6102ce576040517f08c379a00000000000000000000000000000000000000000000000000000000081526004016102c59061197d565b60405180910390fd5b826002600082815260200190815260200160002060030160019054906101000a900460ff16610332576040517f08c379a0000000000000000000000000000000000000000000000000000000008152600401610329906119e9565b60405180910390fd5b600260008281526020019081526020016000206005015442111561038b576040517f08c379a000000000000000000000000000000000000000000000000000000000815260040161038290611a55565b60405180910390fd5b6004600085815260200190815260200160002060003373ffffffffffffffffffffffffffffffffffffffff1673ffffffffffffffffffffffffffffffffffffffff16815260200190815260200160002060009054906101000a900460ff1615610429576040517f08c379a000000000000000000000000000000000000000000000000000000000815260040161042090611ac1565b60405180910390fd5b60036000858152602001908152602001600020805490508310610481576040517f08c379a000000000000000000000000000000000000000000000000000000000815260040161047890611b2d565b60405180910390fd5b60016004600086815260200190815260200160002060003373ffffffffffffffffffffffffffffffffffffffff1673ffffffffffffffffffffffffffffffffffffffff16815260200190815260200160002060006101000a81548160ff02191690831515021790555060036000858152602001908152602001600020838154811061050f5761050e611b4d565b5b9060005260206000209060030201600201600081548092919061053190611bab565b919050555060026000858152602001908152602001600020600601600081548092919061055d90611bab565b919050555060006002600086815260200190815260200160002060030160009054906101000a900460ff166105ab573373ffffffffffffffffffffffffffffffffffffffff1660001b6105d7565b3385426040516020016105c093929190611c5c565b604051602081830303815290604052805190602001205b9050847f96c313364ec07441c94195f44ed1e5f2656059c98a7c0c68466dac90c6fd8bf9858360405161060b929190611cb2565b60405180910390a25050505050565b6003602052816000526040600020818154811061063657600080fd5b90600052602060002090600302016000915091505080600001549080600101805461066090611d0a565b80601f016020809104026020016040519081016040528092919081815260200182805461068c90611d0a565b80156106d95780601f106106ae576101008083540402835291602001916106d9565b820191906000526020600020905b8154815290600101906020018083116106bc57829003601f168201915b5050505050908060020154905083565b60046020528160005260406000206020528060005260406000206000915091509054906101000a900460ff1681565b60015481565b600260205280600052604060002060009150905080600001549080600101805461074790611d0a565b80601f016020809104026020016040519081016040528092919081815260200182805461077390611d0a565b80156107c05780601f10610795576101008083540402835291602001916107c0565b820191906000526020600020905b8154815290600101906020018083116107a357829003601f168201915b5050505050908060020180546107d590611d0a565b80601f016020809104026020016040519081016040528092919081815260200182805461080190611d0a565b801561084e5780601f106108235761010080835404028352916020019161084e565b820191906000526020600020905b81548152906001019060200180831161083157829003601f168201915b5050505050908060030160009054906101000a900460ff16908060030160019054906101000a900460ff16908060040154908060050154908060060154908060070160009054906101000a900473ffffffffffffffffffffffffffffffffffffffff16905089565b806000811180156108c957506001548111155b610908576040517f08c379a00000000000000000000000000000000000000000000000000000000081526004016108ff9061197d565b60405180910390fd5b6002600083815260200190815260200160002060070160009054906101000a900473ffffffffffffffffffffffffffffffffffffffff1673ffffffffffffffffffffffffffffffffffffffff163373ffffffffffffffffffffffffffffffffffffffff1614806109c3575060008054906101000a900473ffffffffffffffffffffffffffffffffffffffff1673ffffffffffffffffffffffffffffffffffffffff163373ffffffffffffffffffffffffffffffffffffffff16145b610a02576040517f08c379a00000000000000000000000000000000000000000000000000000000081526004016109f990611dad565b60405180910390fd5b60006002600084815260200190815260200160002060030160016101000a81548160ff021916908315150217905550817f377045dd57245eddbb8b90975d6fa1c506893f621cf60d74e3532523f3eef4996002600085815260200190815260200160002060060154604051610a779190611381565b60405180910390a25050565b606081600081118015610a9857506001548111155b610ad7576040517f08c379a0000000000000000000000000000000000000000000000000000000008152600401610ace9061197d565b60405180910390fd5b60036000848152602001908152602001600020805480602002602001604051908101604052809291908181526020016000905b82821015610be2578382906000526020600020906003020160405180606001604052908160008201548152602001600182018054610b4790611d0a565b80601f0160208091040260200160405190810160405280929190818152602001828054610b7390611d0a565b8015610bc05780601f10610b9557610100808354040283529160200191610bc0565b820191906000526020600020905b815481529060010190602001808311610ba357829003601f168201915b5050505050815260200160028201548152505081526020019060010190610b0a565b50505050915050919050565b606081600081118015610c0357506001548111155b610c42576040517f08c379a0000000000000000000000000000000000000000000000000000000008152600401610c399061197d565b60405180910390fd5b60036000848152602001908152602001600020805480602002602001604051908101604052809291908181526020016000905b82821015610d4d578382906000526020600020906003020160405180606001604052908160008201548152602001600182018054610cb290611d0a565b80601f0160208091040260200160405190810160405280929190818152602001828054610cde90611d0a565b8015610d2b5780601f10610d0057610100808354040283529160200191610d2b565b820191906000526020600020905b815481529060010190602001808311610d0e57829003601f168201915b5050505050815260200160028201548152505081526020019060010190610c75565b50505050915050919050565b60008054906101000a900473ffffffffffffffffffffffffffffffffffffffff1681565b6000600284511015610dc4576040517f08c379a0000000000000000000000000000000000000000000000000000000008152600401610dbb90611e19565b60405180910390fd5b60008311610e07576040517f08c379a0000000000000000000000000000000000000000000000000000000008152600401610dfe90611e85565b60405180910390fd5b60016000815480929190610e1a90611bab565b9190505550600060015490506040518061012001604052808281526020018881526020018781526020018415158152602001600115158152602001428152602001610e1086610e699190611ea5565b42610e749190611ee7565b8152602001600081526020013373ffffffffffffffffffffffffffffffffffffffff1681525060026000838152602001908152602001600020600082015181600001556020820151816001019081610ecc91906120c7565b506040820151816002019081610ee291906120c7565b5060608201518160030160006101000a81548160ff02191690831515021790555060808201518160030160016101000a81548160ff02191690831515021790555060a0820151816004015560c0820151816005015560e082015181600601556101008201518160070160006101000a81548173ffffffffffffffffffffffffffffffffffffffff021916908373ffffffffffffffffffffffffffffffffffffffff16021790555090505060005b855181101561104357600360008381526020019081526020016000206040518060600160405280838152602001888481518110610fcf57610fce611b4d565b5b602002602001015181526020016000815250908060018154018082558091505060019003906000526020600020906003020160009091909190915060008201518160000155602082015181600101908161102991906120c7565b506040820151816002015550508080600101915050610f8f565b50807f0b0eb434b18eb3f0d02f9b4b01d92bf397c2fde355b0b3fad98aa2a5ffd63c2c8833604051611076929190612199565b60405180910390a28091505095945050505050565b6000826000811180156110a057506001548111155b6110df576040517f08c379a00000000000000000000000000000000000000000000000000000000081526004016110d69061197d565b60405180910390fd5b6004600085815260200190815260200160002060008473ffffffffffffffffffffffffffffffffffffffff1673ffffffffffffffffffffffffffffffffffffffff16815260200190815260200160002060009054906101000a900460ff1691505092915050565b6000604051905090565b600080fd5b600080fd5b6000819050919050565b61116d8161115a565b811461117857600080fd5b50565b60008135905061118a81611164565b92915050565b600080604083850312156111a7576111a6611150565b5b60006111b58582860161117b565b92505060206111c68582860161117b565b9150509250929050565b6111d98161115a565b82525050565b600081519050919050565b600082825260208201905092915050565b60005b838110156112195780820151818401526020810190506111fe565b60008484015250505050565b6000601f19601f8301169050919050565b6000611241826111df565b61124b81856111ea565b935061125b8185602086016111fb565b61126481611225565b840191505092915050565b600060608201905061128460008301866111d0565b81810360208301526112968185611236565b90506112a560408301846111d0565b949350505050565b600073ffffffffffffffffffffffffffffffffffffffff82169050919050565b60006112d8826112ad565b9050919050565b6112e8816112cd565b81146112f357600080fd5b50565b600081359050611305816112df565b92915050565b6000806040838503121561132257611321611150565b5b60006113308582860161117b565b9250506020611341858286016112f6565b9150509250929050565b60008115159050919050565b6113608161134b565b82525050565b600060208201905061137b6000830184611357565b92915050565b600060208201905061139660008301846111d0565b92915050565b6000602082840312156113b2576113b1611150565b5b60006113c08482850161117b565b91505092915050565b6113d2816112cd565b82525050565b6000610120820190506113ee600083018c6111d0565b8181036020830152611400818b611236565b90508181036040830152611414818a611236565b90506114236060830189611357565b6114306080830188611357565b61143d60a08301876111d0565b61144a60c08301866111d0565b61145760e08301856111d0565b6114656101008301846113c9565b9a9950505050505050505050565b600081519050919050565b600082825260208201905092915050565b6000819050602082019050919050565b6114a88161115a565b82525050565b600082825260208201905092915050565b60006114ca826111df565b6114d481856114ae565b93506114e48185602086016111fb565b6114ed81611225565b840191505092915050565b6000606083016000830151611510600086018261149f565b506020830151848203602086015261152882826114bf565b915050604083015161153d604086018261149f565b508091505092915050565b600061155483836114f8565b905092915050565b6000602082019050919050565b600061157482611473565b61157e818561147e565b9350836020820285016115908561148f565b8060005b858110156115cc57848403895281516115ad8582611548565b94506115b88361155c565b925060208a01995050600181019050611594565b50829750879550505050505092915050565b600060208201905081810360008301526115f88184611569565b905092915050565b600060208201905061161560008301846113c9565b92915050565b600080fd5b600080fd5b7f4e487b7100000000000000000000000000000000000000000000000000000000600052604160045260246000fd5b61165d82611225565b810181811067ffffffffffffffff8211171561167c5761167b611625565b5b80604052505050565b600061168f611146565b905061169b8282611654565b919050565b600067ffffffffffffffff8211156116bb576116ba611625565b5b6116c482611225565b9050602081019050919050565b82818337600083830152505050565b60006116f36116ee846116a0565b611685565b90508281526020810184848401111561170f5761170e611620565b5b61171a8482856116d1565b509392505050565b600082601f8301126117375761173661161b565b5b81356117478482602086016116e0565b91505092915050565b600067ffffffffffffffff82111561176b5761176a611625565b5b602082029050602081019050919050565b600080fd5b600061179461178f84611750565b611685565b905080838252602082019050602084028301858111156117b7576117b661177c565b5b835b818110156117fe57803567ffffffffffffffff8111156117dc576117db61161b565b5b8086016117e98982611722565b855260208501945050506020810190506117b9565b5050509392505050565b600082601f83011261181d5761181c61161b565b5b813561182d848260208601611781565b91505092915050565b61183f8161134b565b811461184a57600080fd5b50565b60008135905061185c81611836565b92915050565b600080600080600060a0868803121561187e5761187d611150565b5b600086013567ffffffffffffffff81111561189c5761189b611155565b5b6118a888828901611722565b955050602086013567ffffffffffffffff8111156118c9576118c8611155565b5b6118d588828901611722565b945050604086013567ffffffffffffffff8111156118f6576118f5611155565b5b61190288828901611808565b93505060606119138882890161117b565b92505060806119248882890161184d565b9150509295509295909350565b7f566f746163696f6e206e6f206578697374650000000000000000000000000000600082015250565b60006119676012836111ea565b915061197282611931565b602082019050919050565b600060208201905081810360008301526119968161195a565b9050919050565b7f4c6120766f746163696f6e206e6f206573746120616374697661000000000000600082015250565b60006119d3601a836111ea565b91506119de8261199d565b602082019050919050565b60006020820190508181036000830152611a02816119c6565b9050919050565b7f4c6120766f746163696f6e206861206365727261646f00000000000000000000600082015250565b6000611a3f6016836111ea565b9150611a4a82611a09565b602082019050919050565b60006020820190508181036000830152611a6e81611a32565b9050919050565b7f596120766f746173746520656e206573746120766f746163696f6e0000000000600082015250565b6000611aab601b836111ea565b9150611ab682611a75565b602082019050919050565b60006020820190508181036000830152611ada81611a9e565b9050919050565b7f4f7063696f6e20696e76616c6964610000000000000000000000000000000000600082015250565b6000611b17600f836111ea565b9150611b2282611ae1565b602082019050919050565b60006020820190508181036000830152611b4681611b0a565b9050919050565b7f4e487b7100000000000000000000000000000000000000000000000000000000600052603260045260246000fd5b7f4e487b7100000000000000000000000000000000000000000000000000000000600052601160045260246000fd5b6000611bb68261115a565b91507fffffffffffffffffffffffffffffffffffffffffffffffffffffffffffffffff8203611be857611be7611b7c565b5b600182019050919050565b60008160601b9050919050565b6000611c0b82611bf3565b9050919050565b6000611c1d82611c00565b9050919050565b611c35611c30826112cd565b611c12565b82525050565b6000819050919050565b611c56611c518261115a565b611c3b565b82525050565b6000611c688286611c24565b601482019150611c788285611c45565b602082019150611c888284611c45565b602082019150819050949350505050565b6000819050919050565b611cac81611c99565b82525050565b6000604082019050611cc760008301856111d0565b611cd46020830184611ca3565b9392505050565b7f4e487b7100000000000000000000000000000000000000000000000000000000600052602260045260246000fd5b60006002820490506001821680611d2257607f821691505b602082108103611d3557611d34611cdb565b5b50919050565b7f536f6c6f20656c2063726561646f72206f206f776e657220707565646520636560008201527f7272617200000000000000000000000000000000000000000000000000000000602082015250565b6000611d976024836111ea565b9150611da282611d3b565b604082019050919050565b60006020820190508181036000830152611dc681611d8a565b9050919050565b7f4d696e696d6f2032206f7063696f6e6573000000000000000000000000000000600082015250565b6000611e036011836111ea565b9150611e0e82611dcd565b602082019050919050565b60006020820190508181036000830152611e3281611df6565b9050919050565b7f4475726163696f6e206465626520736572206d61796f72206120300000000000600082015250565b6000611e6f601b836111ea565b9150611e7a82611e39565b602082019050919050565b60006020820190508181036000830152611e9e81611e62565b9050919050565b6000611eb08261115a565b9150611ebb8361115a565b9250828202611ec98161115a565b91508282048414831517611ee057611edf611b7c565b5b5092915050565b6000611ef28261115a565b9150611efd8361115a565b9250828201905080821115611f1557611f14611b7c565b5b92915050565b60008190508160005260206000209050919050565b60006020601f8301049050919050565b600082821b905092915050565b600060088302611f7d7fffffffffffffffffffffffffffffffffffffffffffffffffffffffffffffffff82611f40565b611f878683611f40565b95508019841693508086168417925050509392505050565b6000819050919050565b6000611fc4611fbf611fba8461115a565b611f9f565b61115a565b9050919050565b6000819050919050565b611fde83611fa9565b611ff2611fea82611fcb565b848454611f4d565b825550505050565b600090565b612007611ffa565b612012818484611fd5565b505050565b5b818110156120365761202b600082611fff565b600181019050612018565b5050565b601f82111561207b5761204c81611f1b565b61205584611f30565b81016020851015612064578190505b61207861207085611f30565b830182612017565b50505b505050565b600082821c905092915050565b600061209e60001984600802612080565b1980831691505092915050565b60006120b7838361208d565b9150826002028217905092915050565b6120d0826111df565b67ffffffffffffffff8111156120e9576120e8611625565b5b6120f38254611d0a565b6120fe82828561203a565b600060209050601f831160018114612131576000841561211f578287015190505b61212985826120ab565b865550612191565b601f19841661213f86611f1b565b60005b8281101561216757848901518255600182019150602085019450602081019050612142565b868310156121845784890151612180601f89168261208d565b8355505b6001600288020188555050505b505050505050565b600060408201905081810360008301526121b38185611236565b90506121c260208301846113c9565b939250505056fea26469706673582212208fdc68dc1dca2528c1fe209f871d6b0a02e19bf17cd37ae60c87d15bf828f22564736f6c634300081c0033",
  "linkReferences": {},
  "deployedLinkReferences": {}
}